:020000040800F2
:100000000000082459900008BD160008BF1600081B
:10001000C1160008C3160008C5160008000000003D
:10002000000000000000000000000000A99000088F
:10003000C716000800000000A9900008A990000859
:10004000A9900008A9900008A9900008A9900008AC
:10005000A9900008A9900008A9900008A99000089C
:10006000A9900008A9900008A9900008A99000088C
:10007000A9900008A9900008A9900008A99000087C
:10008000A9900008A9900008A9900008C9160008C6
:10009000A9900008A9900008A9900008A99000085C
:1000A000A9900008D9160008A9900008A990000896
:1000B000E916000811170008A9900008A990000887
:1000C000A9900008A9900008A9900008A99000082C
:1000D000A9900008A9900008A9900008211700081D
:1000E000A9900008A990000800000000A99000084D
:1000F000A9900008A9900008A9900008A9900008FC
:10010000A9900008A9900008A9900008A9900008EB
:10011000A9900008A9900008A9900008A9900008DB
:10012000A9900008A9900008A9900008A9900008CB
:10013000A9900008A9900008A9900008A9900008BB
:1001400000000000000000000000000000000000AF
:10015000A9900008A9900008A9900008A99000089B
:10016000A9900008A9900008A9900008A99000088B
:10017000A9900008A9900008A990000800000000BC
:10018000A9900008A9900008A9900008A99000086B
:10019000A9900008A9900008A9900008A99000085B
:1001A000A9900008A9900008A9900008A99000084B
:1001B000A9900008A9900008A9900008A99000083B
:1001C000A9900008A9900008A9900008A99000082B
:1001D000A9900008A9900008A9900008A99000081B
:1001E000A9900008A9900008A9900008A99000080B
:1001F000A9900008A9900008A9900008A9900008FB
:10020000A9900008A9900008A9900008A9900008EA
:10021000A9900008A9900008A9900008A9900008DA
:10022000A9900008A9900008A9900008000000000B
:10023000A9900008A990000800000000A9900008FB
:10024000A9900008A9900008A9900008A9900008AA
:10025000A9900008A9900008A9900008A99000089A
:10026000A9900008A9900008A9900008A99000088A
:10027000A9900008A9900008A990000800000000BB
:10028000A9900008A9900008A990000800000000AB
:0802900000000000A990000825
:1002A00010B5054C237833B9044B13B10448AFF3B0
:1002B00000800123237010BD7400002400000000A2
:1002C000D49B000808B5034B1BB103490348AFF3A7
:1002D000008008BD0000000078000024D49B0008C6
:1002E000034613F8012B002AFBD1181A0138704776
:1002F00001F0FF01102A2BDB10F0070F08D010F8D7
:10030000013B013A8B422DD010F0070F42B3F6D1DA
:10031000F0B441EA012141EA014122F007047FF0F3
:1003200000070023F0E80256083C85EA010586EA4A
:10033000010685FA47F5A3FA87F586FA47F6A5FA86
:1003400087F68EB9EED1F0BC01F0FF0102F0070292
:1003500032B110F8013B013A83EA010313B1F8D13D
:100360000020704701387047002D06BF354603381E
:10037000073815F0010F07D1013015F4807F02BF57
:10038000013015F4C03F0130F0BC0138704700BFA8
:1003900053B94AB9002908BF00281CBF4FF0FF31EC
:1003A0004FF0FF3000F074B9ADF1080C6DE904CEE8
:1003B00000F006F8DDF804E0DDE9022304B0704740
:1003C0002DE9F047089D04468E46002B4DD18A4208
:1003D000944669D9B2FA82F252B101FA02F3C2F13B
:1003E000200120FA01F10CFA02FC41EA030E9440CC
:1003F0004FEA1C48210CBEFBF8F61FFA8CF708FBED
:1004000016E341EA034306FB07F199420AD91CEBC4
:10041000030306F1FF3080F01F81994240F21C81F6
:10042000023E63445B1AA4B2B3FBF8F008FB10333E
:1004300044EA034400FB07F7A7420AD91CEB040473
:1004400000F1FF3380F00A81A74240F20781644443
:10045000023840EA0640E41B00261DB1D4400023C8
:10046000C5E900433146BDE8F0878B4209D9002D2C
:1004700000F0EF800026C5E9000130463146BDE8B6
:10048000F087B3FA83F6002E4AD18B4202D3824220
:1004900000F2F980841A61EB030301209E46002DCF
:1004A000E0D0C5E9004EDDE702B9FFDEB2FA82F224
:1004B000002A40F09280A1EB0C014FEA1C471FFA82
:1004C0008CFE0126200CB1FBF7F307FB131140EA69
:1004D00001410EFB03F0884208D91CEB010103F136
:1004E000FF3802D2884200F2CB804346091AA4B2F8
:1004F000B1FBF7F007FB101144EA01440EFB00FECC
:10050000A64508D91CEB040400F1FF3102D2A64530
:1005100000F2BB800846A4EB0E0440EA03409CE7CF
:10052000C6F12007B34022FA07FC4CEA030C20FA7C
:1005300007F401FA06F31C43F9404FEA1C4900FA9C
:1005400006F3B1FBF9F8200C1FFA8CFE09FB181119
:1005500040EA014108FB0EF0884202FA06F20BD98C
:100560001CEB010108F1FF3A80F08880884240F2DC
:100570008580A8F102086144091AA4B2B1FBF9F020
:1005800009FB101144EA014100FB0EFE8E4508D91B
:100590001CEB010100F1FF346CD28E456AD90238A0
:1005A000614440EA0840A0FB0294A1EB0E01A14285
:1005B000C846A64656D353D05DB1B3EB080261EBF3
:1005C0000E0101FA07F722FA06F3F1401F43C5E9CD
:1005D000007100263146BDE8F087C2F12003D84003
:1005E0000CFA02FC21FA03F3914001434FEA1C4745
:1005F0001FFA8CFEB3FBF7F007FB10360B0C43EA37
:10060000064300FB0EF69E4204FA02F408D91CEBE6
:10061000030300F1FF382FD29E422DD902386344E4
:100620009B1B89B2B3FBF7F607FB163341EA034184
:1006300006FB0EF38B4208D91CEB010106F1FF38D3
:1006400016D28B4214D9023E6144C91A46EA0046CA
:1006500038E72E46284605E70646E3E61846F8E65C
:100660004B45A9D2B9EB020864EB0C0E0138A3E7A5
:100670004646EAE7204694E74046D1E7D0467BE786
:10068000023B614432E7304609E76444023842E7FE
:10069000704700BF2DE9F0418EB0002509950A95FD
:1006A0000B950C950D955B4CD4F8E03043F00103AD
:1006B000C4F8E030D4F8E03003F001030193019B6B
:1006C000D4F8E03043F00203C4F8E030D4F8E0306E
:1006D00003F002030293029BD4F8E03043F00403DA
:1006E000C4F8E030D4F8E03003F004030393039B34
:1006F000D4F8E03043F00803C4F8E030D4F8E03038
:1007000003F008030493049BD4F8E03043F0100393
:10071000C4F8E030D4F8E03003F010030593059BF3
:10072000D4F8E03043F02003C4F8E030D4F8E030EF
:1007300003F020030693069BD4F8E03043F08003D7
:10074000C4F8E030D4F8E03003F080030793079B4F
:10075000DFF8D48001224FF40C41404603F07CFFC7
:100760002D4F012241F6F871384603F075FF4FF422
:10077000C16309930A950B9509A9284803F09CFDCC
:100780004FF4035309930A950B9509A9244803F0E4
:1007900093FD5F2309930A950B9509A9404603F041
:1007A0008BFD4FF40C43099301260A960B950C958B
:1007B00009A9404603F080FD4CF2030309930A9512
:1007C0000B9509A9384603F077FD41F6F8730993B4
:1007D0000A960B950C9509A9384603F06DFDD4F8DF
:1007E000E83043F40033C4F8E830D4F8E83003F4D8
:1007F00000330893089B6023099302230A930B9606
:100800000C9307230D9309A9064803F055FD0EB07C
:10081000BDE8F0810044025800140258000002585C
:1008200000040258000C02580010025838B5044663
:100830001AE0642BFDD01B490B881BB214F8010B86
:10084000194AD0540A8812B20132184880FB02308B
:10085000D317C3EB6013642000FB13231BB20B8080
:10086000134B1B7863B129464D1EA9B10D4B1B8854
:100870001BB2104A128812B29B1ADAD56433D8E739
:1008800001220B4B1A700B4B1988074B03FA81F1AD
:10089000094807F04BF9E6E74FF4FA7004F0BCF8AA
:1008A00038BD00BF880100241C0100241F85EB51C6
:1008B00084010024860100247C04002410F4024FEB
:1008C00000D170470EB410B583B006AB0193074C4E
:1008D000059A5021204608F0F3FC01462046FFF718
:1008E000A5FF03B0BDE8104003B070478C010024A1
:1008F000F8B50446FFF7F4FC0546234602468F4947
:100900004FF48060FFF7DAFF062D1DD9A71D0222E4
:100910008B49384608F008FC78B14FF0FF360322C7
:100920008849384608F000FC074678B986494FF4F4
:100930008060FFF7C3FF3E4608E084494FF48060C3
:10094000FFF7BCFF0126EAE74FF0FF36032D13D96E
:1009500022797F4BD35C13F0040F02D14FF0FF35A7
:100960000CE0201D08F0A1FB0546024679494FF432
:100970008060FFF7A3FF01E04FF0FF3503227649C7
:10098000204608F0D1FBA8B303227449204608F0A2
:10099000CBFB58B9B6F1FF3F08D0002E00F0908095
:1009A00001224FF480616E4803F056FE03226D4928
:1009B000204608F0B9FB58B9B6F1FF3F08D0002E29
:1009C00000F0858001224FF40061654803F044FE89
:1009D00003226549204608F0A7FB10B9B5F1FF3F97
:1009E0007CD103226149204608F09EFB002800F0DC
:1009F0009D80F8BD33462A465D494FF40040FFF71D
:100A00005DFF6B1E052B54D8DFE803F003101D2A91
:100A100037442EB101220821564803F01DFEB3E7EA
:100A200000220821534803F017FEADE72EB1012242
:100A30001021504803F010FEA6E7002210214D4877
:100A400003F00AFEA0E72EB101222021494803F05D
:100A500003FE99E700222021464803F0FDFD93E7BD
:100A60002EB101224021434803F0F6FD8CE700221D
:100A70004021404803F0F0FD86E72EB1012280219D
:100A80003C4803F0E9FD7FE700228021394803F06C
:100A9000E3FD79E736B101224FF48071354803F068
:100AA000DBFD71E700224FF48071324803F0D4FD82
:100AB0006AE72A4630494FF40040FFF7FFFE63E73C
:100AC00000224FF48061264803F0C6FD6EE7002245
:100AD0004FF40061224803F0BFFD79E727494FF446
:100AE0000040FFF7EBFE012D0AD0022D7FF479AF15
:100AF000AEB101224FF400711E4803F0ADFD70E766
:100B000036B101224FF400711A4803F0A5FD68E7E1
:100B100000224FF40071174803F09EFD61E70022A8
:100B20004FF40071134803F097FD5AE70722144968
:100B30004FF40040FFF7C2FE5BE700BF409C000897
:100B40004C9C00085C9C0008609C0008509C0008BD
:100B500009A600086C9C0008789C00089C9C000872
:100B600000100258A09C0008A49C0008B09C00083B
:100B70007C9C000800140258889C0008A89C00086F
:100B8000B49C0008274B1A8812B2274B1B881BB253
:100B90009A4246D070B525494FF48060FFF78EFE2B
:100BA0000EE0234D2A68234C0026A65423462249F2
:100BB0004FF48060FFF782FE2046FFF799FE2E601B
:100BC000184B1A8812B2184B1B881BB29A4227D0B6
:100BD00014490B881BB216480268541C046017485D
:100BE000C45C144B9C540A8812B20132144BA3FB10
:100BF00002035B09642000FB13231BB20B80224617
:100C000010494FF48060FFF759FE0D2C18BF0A2CD5
:100C1000C7D03D2CC5D0064B1B687F2BD0D1C0E779
:100C200070BD70478001002482010024C89C000828
:100C3000DC010024E0010024D89C0008B800002456
:100C40001F85EB51D09C000808B50D490A8812B2E7
:100C500001320C4BA3FB02C35B094FF0640C0CFB8D
:100C600013231BB20B80D0F88430202B00D008BD9A
:100C700009880122044B03FA81F106F0AFFFF6E781
:100C8000820100241F85EB51B800002408B51149EA
:100C90000A8812B20132104BA3FB02035B096420E5
:100CA00000FB13231BB20B800A8812B20B4B1B886C
:100CB0001BB29A4203D10A4B00221A7008BD054BA1
:100CC00019880122074B03FA81F1074806F02EFF2D
:100CD000F4E700BF860100241F85EB518801002442
:100CE000840100241C0100247C04002408B5034670
:100CF0000A4603494FF40040FFF7E0FD08BD00BF7E
:100D0000E89C000808B503494FF40040FFF7D6FD02
:100D100008BD00BF089D000800B583B0204BD3F884
:100D2000E82042F48022C3F8E820D3F8E83003F446
:100D300080230193019B1B481B4B03604FF4164318
:100D4000436000238360C36003610C2242618361BE
:100D5000C36103624362836207F024FF98B90021F4
:100D6000104808F037F888B900210E4808F09EF8BE
:100D700078B90C4807F0E4FF70B9272000F0B2FF03
:100D800003B05DF804FBFFF7BDFFE8E7FFF7BAFF2C
:100D9000EAE7FFF7B7FFECE7FFF7B4FFEDE700BFC7
:100DA000004402587C0400240048004000B58DB087
:100DB00026494FF48070FFF781FD25484FF08043AE
:100DC0000360EF234360002383606FF04042C26002
:100DD0000361836105F084FB40BB00230893099302
:100DE0000A930B934FF48053089308A9184806F010
:100DF000E7F8F0B9164805F0AFFCE8B90023059311
:100E00000693079305A9124806F002FDB8B900221F
:100E100001920292039204920123029301A90C48C9
:100E200005F09EFF70B90DB05DF804FBFFF76AFF97
:100E3000D3E7FFF767FFDDE7FFF764FFDEE7FFF7C4
:100E400061FFE4E7FFF75EFFEDE700BF189D0008D4
:100E50009803002410B58EB037494FF48070FFF727
:100E60002DFD3648364B036041F27073436000231A
:100E700083604FF4FA62C2600361836105F030FB66
:100E8000002843D100230A930B930C930D934FF446
:100E900080530A930AA9294806F092F8002838D10D
:100EA000264805F0BBFB002836D1002307930893A2
:100EB000099307A9214806F0ABFC00282FD1002296
:100EC000009201920292039204920592069260238C
:100ED00000936946194805F055FD18BB0422694680
:100EE000164805F04FFD00BB08226946134805F07F
:100EF00049FDE8B9114C204600F046FDE3685B0867
:100F00000F4A53639363D3630EB010BDFFF7FAFE2D
:100F1000B8E7FFF7F7FEC3E7FFF7F4FEC5E7FFF713
:100F2000F1FECCE7FFF7EEFED8E7FFF7EBFEDBE7DD
:100F3000FFF7E8FEDEE700BF289D0008E403002479
:100F40000004004010B58EB032494FF48070FFF7B6
:100F5000B5FC3148314B036001234360202383609B
:100F60004023C36000230361836105F0B9FA0028C0
:100F700040D100230A930B930C930D934FF48053AD
:100F80000A930AA9244806F01BF8002835D1224804
:100F900005F044FB002833D10023079308930993FD
:100FA00007A91D4806F034FC68BB0022009201929C
:100FB000029203920492059206926023009369467E
:100FC000154805F0DFFC08BB134C204600F0DCFCA4
:100FD000E3685B08114A53630021204606F0B6FA25
:100FE0000421204606F0B2FA0821204606F0AEFAA7
:100FF0000EB010BDFFF786FEBBE7FFF783FEC6E726
:10100000FFF780FEC8E7FFF77DFECEE7FFF77AFE29
:10101000DAE700BF389D00083004002400080040D3
:1010200000B58DB025494FF48070FFF747FC244888
:10103000244B03600023436083604FF6FF72C2605D
:1010400003614361836105F04BFA40BB00230893C1
:1010500009930A930B934FF48053089308A91848F7
:1010600005F0AEFFF0B9164805F076FBE8B90023AD
:1010700005930693079305A9114806F0C9FBB8B973
:10108000002201920292039204920123029301A989
:101090000B4805F065FE70B90DB05DF804FBFFF775
:1010A00031FED3E7FFF72EFEDDE7FFF72BFEDEE78D
:1010B000FFF728FEE4E7FFF725FEEDE7489D00086F
:1010C0004C0300240040014010B588B036494FF46D
:1010D0008070FFF7F3FB3548354B03604FF48073A6
:1010E00083600023C36003740122427443748374D9
:1010F0000221416182611624C461016241628262FF
:10110000C462016343638263C36302640421416474
:101110008264C164026541658365C3650266436696
:10112000816603F089FD68BB4FF080430093002384
:101130000193022202920122039204936FF0704302
:1011400005936946194804F0F9F8F0B919494FF4C4
:101150008070FFF7B3FB154C00220421204604F0F9
:10116000F7FA00220121204604F0F2FA80B9124970
:101170004FF48070FFF7A2FB0C4804F0A5F950B9BA
:1011800008B010BDFFF7BEFDCEE7FFF7BBFDDDE702
:10119000FFF7B8FDEBE709494FF48070FFF78EFBCE
:1011A000FFF7B0FDECE700BF589D00086002002487
:1011B00000A000406C9D0008989D0008A89D0008B4
:1011C00038B50F4B984200D038BD044604F0DEFC21
:1011D000054602460B494FF40040FFF76FFB15F040
:1011E000006F03D02268136D2B43136515F0040FB5
:1011F000EAD005494FF40040FFF760FBE4E700BF89
:1012000060020024BC9D0008DC9D000808B503496D
:101210004FF48070FFF752FB08BD00BFFC9D000833
:1012200008B503494FF48070FFF748FB08BD00BFC5
:10123000249E000808B503494FF48070FFF73EFB79
:1012400008BD00BF449E000808B503494FF48070F4
:10125000FFF734FB08BD00BF689E000808B564288E
:1012600000D900200F4A4EF6602302FB00330238FB
:1012700040F2E632904208D90B4A136823F001038A
:1012800013600A4804F01CFF08BD074A116841F0CA
:101290000101116059085163D362044804F0B0FEA3
:1012A000F2E700BFA8FDFFFF000800403004002463
:1012B00011F0010F00D1704710B59AB0044601AB90
:1012C000144A402104F01AF978B9124B1B68C3F391
:1012D0000F234FF6F16293420AD0002201212046EB
:1012E00004F036FA98B91AB010BDFFF70BFDECE721
:1012F0004FF48051084803F0CBF99DF806309DF873
:10130000050000EB03200012FFF7A8FFE5E7FFF759
:10131000F9FCE8E7900000240014025800B5CDB0B5
:10132000022003F003FB00230193344B9A6942F43B
:1013300040429A619B6903F440430193304BDA6A5F
:1013400042F00102DA62DB6A03F001030193019BC0
:101350002A4B9B6913F4005FFAD04C22002139A874
:1013600007F0DAFE012339934FF480333A930223D6
:101370004293439305224492C02245924693479359
:1013800048930823499339A800F0C4FC60BB20228D
:10139000002131A807F0C0FE3F233193032332938D
:1013A000082334934023359336934FF48062379269
:1013B0003893042131A801F087F9C0B9BC2200217B
:1013C00002A807F0A9FE02A802F086FC48F2030377
:1013D000029300231D931F93209302A801F002FEA5
:1013E00040B94DB05DF804FBFFF78CFCCFE7FFF789
:1013F00089FCE3E7FFF786FCF3E700BF00480258EB
:101400000004005838B5404B0022C3F88420BFF3D5
:101410004F8FD3F88040C4F34E3000E01846C4F339
:10142000C90243F6E07303EA401343EA8273364984
:10143000C1F860321346013A002BF2D1431E002856
:10144000ECD1BFF34F8F4B6943F480334B61BFF353
:101450004F8FBFF36F8F03F09FFAFFF75FFFFFF728
:1014600019F9FFF759FCFFF7A1FCFFF7F3FCFFF7B1
:1014700069FDFFF7D5FDFFF727FE00F06BF8234B62
:101480005A6942F008025A615A6942F010025A61E0
:101490005A6942F020025A615A6942F040025A6188
:1014A0005A6942F080025A615A6942F480725A6164
:1014B000072217494FF40040FFF700FA154B19882F
:1014C0000122154B03FA81F1144806F087FBA0B9FD
:1014D00000244FF400610D4803F0DAF84FF4FA707D
:1014E00003F09AFA651C22460D494FF40040FFF7BD
:1014F000E5F9FFF747FB2C46EBE70A494FF40040BC
:10150000FFF7DCF9E4E700BF00ED00E0001402584B
:10151000B49C000880010024B80000247C0400244E
:10152000A09E0008889E000810B504460268074B7C
:101530009A4204D02268064B9A4203D010BD03F0B1
:1015400059FAF7E7032003F067FAF7E700000140D4
:10155000000400401D4B1B681A6822F001021A604B
:101560005A6822F070025A605A6842F030025A609B
:1015700000229A624FF0FF32DA62DA6842F0020229
:10158000DA601A6842F001021A60114B1B681A688F
:1015900022F001021A6099680E4A0A409A609A681D
:1015A00042F014029A60EF229A6243F2D4025A6324
:1015B0004CF28232DA62196A41F211120A431A625B
:1015C0001A6842F001021A60704700BF98030024B5
:1015D000E403002488FFCEFF38B503685B6B2E4818
:1015E00002682E4941F822302D4C2168591A2D4DA0
:1015F00045F822102360013202F01F0202602A49DE
:101600000B6801330B6013F00F0F43D1013A114601
:1016100000200346844609E0013901F01F01214CF6
:1016200054F821401B194CF1000C01300F28F3DD58
:101630001B0943EA0C740021084609E0013A02F054
:101640001F02184B53F82230E31A03FB0300013149
:101650000F29F3DD031100EE103AB8EEC00B08F0CD
:1016600083FAFDEEC07B17EE903A104AA2FB0424E9
:1016700003EB830303EBD41313330D4AA2FB0323C1
:101680001B090C4A13604CF28232934238BF134656
:10169000094AD36238BD00BF0C06002408050024A7
:1016A000100600248C050024880500248988888879
:1016B000CDCCCCCC14060024000400407047FEE7DB
:1016C000FEE7FEE7FEE7704708B5024804F0D0F8F1
:1016D00008BD00BF6002002408B5024804F0B0FD58
:1016E00008BD00BF1806002408B5074B1B681B691E
:1016F00013F0020F03D1044804F0A2FD08BD034813
:10170000FFF76AFFF7E700BF98030024E403002413
:1017100008B5024804F094FD08BD00BFE4030024AE
:1017200008B5024806F010FC08BD00BF7C04002488
:1017300000B583B00A4BD3F8F42042F00202C3F89C
:10174000F420D3F8F43003F002030193019B00224C
:101750000F216FF0010000F081FA03B05DF804FB87
:101760000044025830B5B7B0054600243194329495
:1017700033943494359427494FF48070FFF79EF8E2
:10178000BC22214602A807F0C7FC2A68224B9A42D5
:1017900001D037B030BD4FF40043029302A801F0EE
:1017A00021FC002833D11D4BD3F8EC2042F4807289
:1017B000C3F8EC20D3F8EC2002F480720092009A77
:1017C000D3F8E02042F00802C3F8E020D3F8E0307C
:1017D00003F008030193019B11494FF48070FFF758
:1017E0006DF803233193022332930024339434930E
:1017F0000923359331A90B4802F05EFD22460521ED
:10180000132000F02BFA132000F06CFAC1E7FFF769
:1018100079FAC8E7A49E000800A0004000440258DE
:10182000B89E0008000C025800B58DB00023079345
:10183000089309930A930B930368B3F1804F0BD07D
:101840004A4A934233D04A4A93425CD0494A93422F
:1018500067D00DB05DF804FB474BD3F8E82042F0A9
:101860000102C3F8E820D3F8E82002F00102009258
:10187000009AD3F8E02042F00102C3F8E020D3F848
:10188000E03003F001030193019B0123079302223F
:1018900008920B9307A9394802F00EFD002205219A
:1018A0001C2000F0DBF91C2000F01CFAD1E7324BC1
:1018B000D3F8E82042F00202C3F8E820D3F8E82089
:1018C00002F002020292029AD3F8E02042F00402EF
:1018D000C3F8E020D3F8E03003F004030393039B44
:1018E0004FF400730793022308930B9307A924482E
:1018F00002F0E2FC002205211D2000F0AFF91D20BE
:1019000000F0F0F9A5E71C4BD3F8E82042F0040200
:10191000C3F8E820D3F8E83003F004030493049BF1
:1019200097E7154BD3F8F02042F48032C3F8F0204B
:10193000D3F8F02002F480320592059AD3F8E02023
:1019400042F01002C3F8E020D3F8E03003F01003B7
:101950000693069B202307930223089304230B93EB
:1019600007A9084802F0A8FC73E700BF0004004084
:1019700000080040004001400044025800000258A6
:10198000000802580010025800B589B000230393E4
:10199000049305930693079303681C4A934205D06A
:1019A0001B4A93421AD009B05DF804FB194BD3F8D7
:1019B000E02042F00402C3F8E020D3F8E03003F066
:1019C00004030193019B4FF4E073039302230493F8
:1019D000079303A9104802F06FFCE4E70D4BD3F81E
:1019E000E02042F00802C3F8E020D3F8E03003F032
:1019F00008030293029B4FF4805303930223049342
:101A0000079303A9054802F057FCCCE70004004007
:101A1000000800400044025800080258000C025818
:101A200010B5BAB0044600213591369137913891FE
:101A30003991BC2206A807F06FFB23684E4A9342F7
:101A400007D04E4A934235D04D4A934262D03AB0C5
:101A500010BD0123069306A801F0C4FA38BB494B18
:101A6000D3F8F02042F01002C3F8F020D3F8F020B1
:101A700002F010020092009AD3F8E02042F0010236
:101A8000C3F8E020D3F8E03003F001030193019B99
:101A90004FF4C06335930223369300233793389372
:101AA0000723399335A9384802F006FCCFE7FFF742
:101AB00029F9D4E70223069306A801F093FA30BB74
:101AC000304BD3F8E82042F40032C3F8E820D3F8D2
:101AD000E82002F400320292029AD3F8E02042F0A9
:101AE0000802C3F8E020D3F8E03003F008030393C2
:101AF000039B602335930223369300233793389357
:101B00000723399335A9214802F0D6FB9FE7FFF759
:101B1000F9F8D5E70223069306A801F063FA38BB6B
:101B2000184BD3F8E82042F48022C3F8E820D3F819
:101B3000E82002F480220492049AD3F8E02042F0D4
:101B40000802C3F8E020D3F8E03003F0080305935F
:101B5000059B4FF44073359302233693002337934C
:101B600038930723399335A9084802F0A5FB6EE79F
:101B7000FFF7C8F8D4E700BF001001400044004060
:101B8000004800400044025800000258000C02586F
:101B90000F2801D90120704710B58AB004460022F1
:101BA0000146192000F05AF8192000F09BF8174B55
:101BB0001C60174BD3F8F02042F00102C3F8F0206C
:101BC000D3F8F03003F001030093009B01A902A8B1
:101BD00001F01AF801F006F843000E48A0FB0323B9
:101BE0009B0C013B0C480D4A026040F2E732C26098
:101BF000436000230361836004F072FC10B1012094
:101C00000AB010BD044804F0B1FAF9E7040000245A
:101C10000044025883DE1B431806002400000140E4
:101C200010B50446C31E042B0DD8094AD36823F40B
:101C3000E0631B041B0C240204F4E0641C43054B0A
:101C40002343D36010BD92210348FFF74FF8ECE720
:101C500000ED00E00000FA05D89E000870B50546CA
:101C60000C4616460F2A21D80F2C24D8194BDB68B6
:101C7000C3F30223C3F10701042928BF04211A1D5D
:101C8000062A1DD9033B4FF0FF3202FA01F124EA84
:101C900001049C4002FA03F326EA03063443002DB4
:101CA00010DB2401E4B20C4B5C5570BDAA210B483B
:101CB000FFF71CF8D8E7AB210848FFF717F8D5E77E
:101CC0000023E0E705F00F052401E4B2044B5C5566
:101CD000EBE700BF00ED00E000E400E0D89E000864
:101CE00014ED00E010B5041E0ADB002C07DB04F045
:101CF0001F02640901239340044A42F8243010BDB6
:101D0000BE210348FEF7F2FFEFE700BF00E100E06D
:101D1000D89E0008002800F0BC8338B5044603684C
:101D200013B113F03F0F25D0236813F0010F3AD001
:101D30006368002B18BFB3F5803F02D0B3F5A02F26
:101D40001ED1A24A136903F03803926A102B21D0E6
:101D5000182B1BD06368B3F5803F57D0002B6BD195
:101D60009A4B1A6822F480321A601A6822F4802290
:101D70001A6050E04FF4CF719548FEF7B7FFD3E7F4
:101D800040F2A3119248FEF7B1FFDAE702F0030236
:101D9000022ADFD18D4B1B6813F4003F03D0636828
:101DA000002B00F07883236813F0020F00F0A3806B
:101DB000E368092B18BF012B03D9112B01D0192B74
:101DC00060D123697F2B63D8804A1369926A13F02C
:101DD000380366D0182B61D0E368002B00F0DC805C
:101DE0007A490A6822F0190213430B6002F00EFED2
:101DF0000546764B1B6813F0040F40F0AB8002F0F1
:101E000005FE401B0228F4D903204BE36F4A1368F8
:101E100043F48033136063682BB302F0F7FD05468B
:101E20006A4B1B6813F4003FBDD102F0EFFD401B6D
:101E30006428F5D9032035E3B3F5A02F09D0634B0F
:101E40001A6822F480321A601A6822F480221A601A
:101E5000E1E75E4B1A6842F480221A601A6842F485
:101E600080321A60D7E702F0D1FD0546574B1B6858
:101E700013F4003F97D002F0C9FD401B6428F5D948
:101E800003200FE340F2D7115148FEF72FFF98E7E8
:101E90004FF4EC714E48FEF729FF95E712F0030F5F
:101EA0009AD14A4B1B6813F0040F03D0E368002B50
:101EB00000F0F38202F0C4FD41F20303984212D80D
:101EC0002269402A07D041494B6823F47C3343EA16
:101ED00002334B600FE03D4A536823F47C3343F4F4
:101EE0000033536007E0394A536823F0FE43216909
:101EF00043EA01635360236813F0100F00F09E80E3
:101F0000E369002B18BF802B5AD1236A3F2B61D87D
:101F10002E4A136903F03803926A082B64D0182BF9
:101F20005ED0E369002B00F0C980284A136843F0B3
:101F30008003136002F06AFD0546244B1B6813F40E
:101F4000807F40F0998002F061FD401B0228F4D9A7
:101F50000320A7E202F074FD41F20303984212D875
:101F60002269402A07D019494B6823F47C3343EA9D
:101F700002334B60BFE7154A536823F47C3343F4C4
:101F800000335360B7E7114A536823F0FE432169D9
:101F900043EA01635360AEE70C4A136823F0010380
:101FA000136002F033FD0546084B1B6813F0040F65
:101FB000A1D002F02BFD401B0228F5D9032071E2CD
:101FC00040F21A210248FEF791FE9EE700440258B3
:101FD000109F000840F21B219A48FEF787FE97E702
:101FE00002F00302012A9CD1974B1B6813F4807FF7
:101FF00003D0E369802B40F0528202F021FD41F2D0
:102000000303984212D8226A202A07D08E494B68CF
:1020100023F0F84343EA82634B600FE08A4A536837
:1020200023F0F84343F08043536007E0864AD368C7
:1020300023F07C53216A43EA0163D360236813F0E1
:10204000080F69D06369012B4CD86369002B4FD00E
:102050007D4A536F43F00103536702F0D7FC0546F6
:10206000794B5B6F13F0020F56D102F0CFFC401B8F
:102070000228F5D9032015E202F0E2FC41F2030345
:10208000984212D8226A202A07D06F494B6823F061
:10209000F84343EA82634B60D0E76B4A536823F00E
:1020A000F84343F080435360C8E7674AD36823F09E
:1020B0007C53216A43EA0163D360BFE7624A136835
:1020C00023F08003136002F0A1FC05465E4B1B6801
:1020D00013F4807FB2D002F099FC401B0228F5D99E
:1020E0000320DFE14FF417715648FEF7FFFDACE720
:1020F000554A536F23F00103536702F087FC0546EE
:10210000514B5B6F13F0020F06D002F07FFC401BB7
:102110000228F5D90320C5E1236813F0200F32D03F
:10212000A369012B15D8A369CBB1474A136843F4BF
:102130008053136002F06AFC0546434B1B6813F49E
:10214000005F20D102F062FC401B0228F5D9032079
:10215000A8E140F287213B48FEF7C8FDE3E73A4A91
:10216000136823F48053136002F050FC0546364B8D
:102170001B6813F4005F06D002F048FC401B0228E5
:10218000F5D903208EE1236813F0040F71D0A36802
:10219000052B18BF012B13D82C4A136843F4807306
:1021A000136002F033FC0546284B1B6813F4807F54
:1021B0000CD102F02BFC401B6428F5D9032071E1FF
:1021C00040F2B1211F48FEF791FDE5E7A368012B1E
:1021D0000AD00BBB1C4B1A6F22F001021A671A6F50
:1021E00022F004021A6704E0174A136F43F0010358
:1021F0001367A36863B302F009FC0546124B1B6F1B
:1022000013F0020F35D102F001FC401B41F288337C
:102210009842F3D9032045E1052B09D00A4B1A6FE8
:1022200022F001021A671A6F22F004021A67E0E72F
:10223000054B1A6F42F004021A671A6F42F001024E
:102240001A67D6E7109F0008004402580048025859
:1022500002F0DCFB05469B4B1B6F13F0020F08D00E
:1022600002F0D4FB401B41F288339842F3D903209B
:1022700018E1636A022B41D8636A002B00F01181D8
:10228000904A126902F03802182A00F0D980022B15
:1022900040F0C080A36A032B18BF012B01D9022B89
:1022A00032D1E36A013B3E2B34D8236B043BB3F5B8
:1022B000FE7F35D8636B013B7F2B37D8A36B013B87
:1022C0007F2B39D8E36B013B7F2B3BD8A36CB3F555
:1022D000005F3DD27B4A136823F08073136002F0E5
:1022E00095FB0546774B1B6813F0007F36D002F054
:1022F0008DFB401B0228F5D90320D3E040F2E321F7
:102300007148FEF7F3FCB7E74FF43B716E48FEF7F8
:10231000EDFCC6E740F2ED216B48FEF7E7FCC4E7B1
:1023200040F2EE216848FEF7E1FCC3E740F2EF21FE
:102330006548FEF7DBFCC1E74FF43C716248FEF7ED
:10234000D5FCBFE740F2F1215F48FEF7CFFCBDE7C7
:1023500040F2F2215C48FEF7C9FCBBE7594B996A91
:102360005A4A0A40A16AE06A41EA00110A439A62A5
:10237000226B013AC2F30802616B0139490289B24A
:102380000A43A16B0139090401F4FE010A43E16B20
:102390000139090601F0FE410A431A63DA6A22F0A4
:1023A0000102DA62596B4A4A0A40A16C42EAC10250
:1023B0005A63DA6A22F00C02216C0A43DA62DA6AA2
:1023C00022F00202616C0A43DA62DA6A42F4803275
:1023D000DA62DA6A42F40032DA62DA6A42F48022BD
:1023E000DA62DA6A42F00102DA621A6842F0807256
:1023F0001A6002F00BFB0446324B1B6813F0007F9F
:1024000006D102F003FB001B0228F5D9032049E0A6
:10241000002047E02B4A136823F08073136002F01A
:10242000F5FA0446274B1B6813F0007F06D002F034
:10243000EDFA001B0228F5D9032033E0002031E03B
:10244000204A916A106B012B2DD001F00303A26A80
:1024500093422AD1C1F30511E36A994227D1C0F30F
:102460000802236B013B9A4223D1C0F34622636BDF
:10247000013B9A421FD1C0F30642A36B013B9A4233
:102480001BD1C0F30660E36B013B984217D10020DB
:1024900008E001207047012004E0012002E0012053
:1024A00000E0002038BD0120FCE70120FAE7012010
:1024B000F8E70120F6E70120F4E70120F2E7012028
:1024C000F0E700BF00440258109F00080CFCFFFF1B
:1024D0000700FFFF744B1B6903F03803102B00F05B
:1024E000DE80182B10D00BB1704870476E4B1B6804
:1024F00013F0200F00F0D5806B4B1868C0F3C100BB
:102500006B4B23FA00F0704710B4674A916A01F0F0
:102510000301946AC4F30510D36A03F0010C536BF2
:10252000C3F3CC030CFB03F307EE903AF8EE677AA3
:1025300014F47C7F00F09380012965D0022900F01B
:102540009180E1B107EE100AF8EE476A9FED596AF3
:1025500086EE267A544B1B6BC3F3080306EE903AC3
:10256000F8EE666A9FED546A67EE867A76EEA77A91
:10257000F7EE006A77EEA67A27EE277A60E0136816
:1025800013F0200F23D011461268C2F3C102484B4A
:10259000D34007EE103AF8EE476A07EE100AB8EE9D
:1025A000476A86EE867A0B6BC3F3080306EE903A11
:1025B000F8EE666A9FED406A67EE867A76EEA77A55
:1025C000F7EE006A77EEA67A27EE277A38E007EE74
:1025D000100AF8EE476A9FED396A86EE267A324B8A
:1025E0001B6BC3F3080306EE903AF8EE666A9FEDA4
:1025F000326A67EE867A76EEA77AF7EE006A77EEB1
:10260000A67A27EE277A1BE007EE100AF8EE476A53
:102610009FED286A86EE267A234B1B6BC3F30803D3
:1026200006EE903AF8EE666A9FED236A67EE867AC8
:1026300076EEA77AF7EE006A77EEA67A27EE277A8B
:10264000194B1B6BC3F34623013307EE903AF8EEA8
:10265000677AC7EE276AFCEEE67A17EE900A5DF815
:10266000044B704707EE100AF8EE476A9FED146AB4
:1026700086EE267A0C4B1B6BC3F3080306EE903AEA
:10268000F8EE666A9FED0C6A67EE867A76EEA77AB8
:10269000F7EE006A77EEA67A27EE277AD0E70948A8
:1026A00070470348704700BF0044025800093D00CE
:1026B0000090D0030024744A000000390024744CB8
:1026C00020BCBE4B40787D01002800F0418270B5EF
:1026D0000D4604460368013B3E2B00F2E9800F2DB6
:1026E00000F2EC809D4B1B6803F00F03AB420BD252
:1026F0009A4A136823F00F032B431360136803F007
:102700000F03AB4240F02682236813F0040F18D069
:102710002269934B9B6903F070039A4211D9002AF6
:1027200018BF402A06D0502A04D0602A02D0702A4E
:1027300040F0CA808A4A936923F0700321690B43F1
:102740009361236813F0080F18D06269844BDB692A
:1027500003F070039A4211D9002A18BF402A06D00C
:10276000502A04D0602A02D0702A40F0B3807C4AFC
:10277000D36923F0700361690B43D361236813F0BD
:10278000100F1CD0A269764BDB6903F4E0639A4218
:1027900015D9002A18BFB2F5806F09D0B2F5A06F25
:1027A00006D0B2F5C06F03D0B2F5E06F40F098806C
:1027B0006B4AD36923F4E063A1690B43D3612368B7
:1027C00013F0200F18D0E269654B1B6A03F0700309
:1027D0009A4211D9002A18BF402A06D0502A04D0A4
:1027E000602A02D0702A40F081805D4A136A23F08B
:1027F0007003E1690B431362236813F0020F1FD0CB
:10280000E268574B9B6903F00F039A4218D9002ADC
:1028100018BF082A0DD0092A0BD00A2A09D00B2A82
:1028200007D00C2A05D00D2A03D00E2A01D00F2A7A
:1028300062D14B4A936923F00F03E1680B43936124
:10284000236813F0010F00F09D80A368002B18BFD0
:10285000B3F5006F14D0B3F5106F11D0B3F5206F3E
:102860000ED0B3F5306F0BD0B3F5406F08D0B3F591
:10287000506F05D0B3F5606F02D0B3F5706F41D1E2
:102880006368032B44D8364A936923F47063A168C4
:102890000B4393616368022B40D0032B64D0012B60
:1028A00069D02F4A126812F0040F3CD1012030E1A8
:1028B00040F27F312B48FEF719FA10E74FF46071B0
:1028C0002848FEF713FA0DE74FF467712548FEF725
:1028D0000DFA2FE740F2AE312248FEF707FA46E73D
:1028E00040F2BF311F48FEF701FA61E740F2D131F3
:1028F0001C48FEF7FBF978E74FF479711948FEF7A9
:10290000F5F996E74FF47D711648FEF7EFF9B7E752
:1029100040F2F5311348FEF7E9F9B4E7126812F412
:10292000003F00F019810E490A6922F007021343A3
:102930000B6102F06BF80646094B1B6903F0380384
:102940006268B3EBC20F1DD002F060F8801B41F249
:1029500088339842F0D90320DBE000BF002000520A
:1029600000440258109F00087D4A126812F0007F50
:10297000D9D10120CDE07A4A126812F4807FD2D1F9
:102980000120C6E0236813F0020F20D0E268744BE8
:102990009B6903F00F039A4219D2002A18BF082A34
:1029A0000ED0092A0CD00A2A0AD00B2A08D00C2AE9
:1029B00006D00D2A04D00E2A02D00F2A40F0AA8099
:1029C000674A936923F00F03E1680B439361654BFA
:1029D0001B6803F00F03AB420BD9624A136823F064
:1029E0000F032B431360136803F00F03AB4240F057
:1029F000B580236813F0040F18D02269584B9B69E7
:102A000003F070039A4211D2002A18BF402A06D060
:102A1000502A04D0602A02D0702A40F08180504AA7
:102A2000936923F0700321690B439361236813F0CA
:102A3000080F17D062694A4BDB6903F070039A42B2
:102A400010D2002A18BF402A05D0502A03D0602A8D
:102A500001D0702A6AD1424AD36923F070036169B8
:102A60000B43D361236813F0100F1BD0A2693C4BBA
:102A7000DB6903F4E0639A4214D2002A18BFB2F56E
:102A8000806F08D0B2F5A06F05D0B2F5C06F02D04C
:102A9000B2F5E06F50D1324AD36923F4E063A16903
:102AA0000B43D361236813F0200F17D0E2692C4B3E
:102AB0001B6A03F070039A4210D2002A18BF402A02
:102AC00005D0502A03D0602A01D0702A3AD1244A76
:102AD000136A23F07003E1690B431362FFF7FAFCFA
:102AE0001F498B69C3F303231F4AD35C03F01F0301
:102AF000D8408B6903F00F03D35C03F01F0320FA67
:102B000003F31A4A13601A4B18601A4B1868FFF740
:102B10003FF870BD40F236411748FEF7E7F84FE73F
:102B200040F257411448FEF7E1F878E740F2694176
:102B30001148FEF7DBF88EE740F27B410E48FEF7C6
:102B4000D5F8A8E740F28D410B48FEF7CFF8BEE775
:102B5000012070470120DCE70120DAE70120D8E7F7
:102B60000044025800200052F8A500080C00002480
:102B70000800002404000024109F000808B5FFF797
:102B8000A9FC0B4A9369C3F303230A49CB5C03F006
:102B90001F0320FA03F3926902F00F02885C00F031
:102BA0001F0023FA00F0044A1060044A136008BDB5
:102BB00000440258F8A500080C0000240800002476
:102BC00008B5FFF7DBFF054BDB69C3F30213044ACB
:102BD000D35C03F01F03D84008BD00BF0044025877
:102BE000F8A5000808B5FFF7C9FF054BDB69C3F37B
:102BF0000223044AD35C03F01F03D84008BD00BF82
:102C000000440258F8A500083F230360114B1A69DD
:102C100002F0070242609A6902F4706282609A6967
:102C200002F00F02C2609A6902F070020261DA6972
:102C300002F070024261DA6902F4E06282611B6AAA
:102C400003F07003C361044B1B6803F00F030B60B8
:102C5000704700BF004402580020005270B504467F
:102C60000E460368013B3E2B3DD86368043BB3F539
:102C7000FE7F3ED8A368013B7F2B40D82369013BF0
:102C80007F2B42D8E368013B7F2B44D86369002B3C
:102C900018BF402B03D0802B01D0C02B41D1A3699A
:102CA000002B18BF202B42D1E369B3F5005F44D25B
:102CB000574B9B6A03F00303032B00F0A780544A91
:102CC000136823F08063136001F0A0FE0546504BAB
:102CD0001B6813F0006F36D001F098FE431B022BE7
:102CE000F5D9032093E040F6B2414A48FDF7FEFFD4
:102CF000BBE740F6B3414748FDF7F8FFBAE740F6B7
:102D0000B4414448FDF7F2FFB8E740F6B541414809
:102D1000FDF7ECFFB6E740F6B6413E48FDF7E6FFAB
:102D2000B4E740F6B7413B48FDF7E0FFB7E740F6B0
:102D3000B8413848FDF7DAFFB6E740F6B941354803
:102D4000FDF7D4FFB4E7324B9A6A22F47C32216853
:102D500042EA01329A626268013AC2F30802A1684B
:102D60000139490289B20A43E1680139090401F4D1
:102D7000FE010A4321690139090601F0FE410A43B7
:102D80009A63DA6A22F0C00261690A43DA62DA6A97
:102D900022F02002A1690A43DA62DA6A22F0100204
:102DA000DA62D96B1C4A0A40E16942EAC102DA637D
:102DB000DA6A42F01002DA62C6B91A46DB6A43F4F4
:102DC0000023D362124A136843F08063136001F05A
:102DD0001DFE04460E4B1B6813F0006F14D101F06A
:102DE00015FE001B0228F5D9032010E0012E05D0A6
:102DF000074AD36A43F40013D362E3E7044AD36A71
:102E000043F48013D362DDE7002000E0012070BDB1
:102E100000440258489F00080700FFFF70B50446B1
:102E20000E460368013B3E2B41D86368043BB3F573
:102E3000FE7F42D8A368013B7F2B44D82369013B26
:102E40007F2B46D8E368013B7F2B48D86369002B72
:102E500018BFB3F5806F05D0B3F5006F02D0B3F59E
:102E6000406F42D1A369002B18BFB3F5007F42D158
:102E7000E369B3F5005F44D2574B9B6A03F0030349
:102E8000032B00F0A780544A136823F0805313608B
:102E900001F0BCFD0546504B1B6813F0005F36D0B7
:102EA00001F0B4FD431B022BF5D9032093E040F65B
:102EB0001A514A48FDF71AFFB7E740F61B51474839
:102EC000FDF714FFB6E740F61C514448FDF70EFF2E
:102ED000B4E740F61D514148FDF708FFB2E740F660
:102EE0001E513E48FDF702FFB0E740F61F513B4838
:102EF000FDF7FCFEB6E74FF452613848FDF7F6FEE9
:102F0000B6E740F621513548FDF7F0FEB4E7324B05
:102F10009A6A22F07C72216842EA01529A626268DF
:102F2000013AC2F30802A1680139490289B20A4391
:102F3000E1680139090401F4FE010A4321690139FC
:102F4000090601F0FE410A431A64DA6A22F440627B
:102F500061690A43DA62DA6A22F40072A1690A43FB
:102F6000DA62DA6A22F48072DA62596C1C4A0A4028
:102F7000E16942EAC1025A64DA6A42F48072DA62B2
:102F8000C6B91A46DB6A43F48003D362124A136857
:102F900043F08053136001F039FD04460E4B1B686B
:102FA00013F0005F14D101F031FD001B0228F5D9A8
:102FB000032010E0012E05D0074AD36A43F0807346
:102FC000D362E3E7044AD36A43F40003D362DDE744
:102FD000002000E0012070BD00440258489F000816
:102FE0000700FFFFF8B50446036813F0006F30D008
:102FF000436EB3F5001F26D00ED8EBB1B3F5801F9A
:1030000007D102210430FFF729FE054645B12E46BF
:1030100021E0012635461EE0B3F5401F09D1002509
:103020009E4A136D23F44013616E0B431365002613
:1030300011E0012635460EE0984AD36A43F4003386
:10304000D3620025ECE702212430FFF7E7FE0546B6
:10305000DCE700263546236813F4807F14D0636DC7
:10306000042B30D8DFE803F00322280808008B4A3D
:10307000D36A43F40033D36245BB884A136D23F00F
:103080000703616D0B431365236813F4007F2FD092
:10309000A36D802B4AD01ED8002B41D0402B17D1D6
:1030A0000021201DFFF7DAFD054619E00021201D53
:1030B000FFF7D4FD0546DFE7002104F12400FFF708
:1030C000ADFE0546D8E701263546DDE72E46DBE7AF
:1030D000012635460CE0C02B02D0B3F5807F1CD111
:1030E0005DBB6E4A136D23F4E073A16D0B43136552
:1030F000236813F4806F34D0D4F8A430B3F5800F74
:103100004DD01FD8002B44D0B3F5001F17D100219C
:10311000201DFFF7A3FD05461AE001263546E7E727
:103120005E4AD36A43F40033D362D9E7002104F145
:103130002400FFF773FE0546D2E72E46D8E70126A6
:1031400035460EE0B3F5C00F02D0B3F5000F1DD128
:1031500065BB524A936D23F46003D4F8A4100B436B
:103160009365236813F4006F35D0D4F8A830B3F119
:10317000007F53D01FD8002B4AD0B3F1807F17D1E6
:103180000021201DFFF76AFD05461AE0012635469D
:10319000E7E7424AD36A43F40033D362D8E7002119
:1031A00004F12400FFF73AFE0546D1E72E46D8E7A2
:1031B000012635460FE0B3F1407F02D0B3F1806FB6
:1031C00023D1002D31D1354A936D23F0E063D4F83B
:1031D000A8100B439365236813F0007F2ED0A36CD7
:1031E000202B3ED026D833B1102B20D12B4AD36AC6
:1031F00043F40033D362002D39D1284AD36C23F035
:103200003003A16C0B43D36418E001263546E2E796
:10321000224AD36A43F40033D362D2E7002104F197
:103220002400FFF7FBFD0546CBE72E46D3E701263A
:10323000354603E0302BDED001263546236813F4F3
:10324000805F3BD0E36DB3F5005F2FD014D83BB364
:10325000B3F5805F0DD10021201DFFF7FFFC05466F
:1032600010E00221201DFFF7F9FC0546C3E72E46BA
:10327000E4E70126354621E0B3F5405F02D0B3F51F
:10328000804F08D1CDB9054A136D23F4E043E16DB9
:103290000B43136512E0012635460FE00044025847
:1032A000534AD36A43F40033D362EBE7002104F1BD
:1032B0002400FFF7B3FD0546E4E72E46236813F428
:1032C000005F25D0236EB3F5003F3FD015D83BB14A
:1032D000B3F5803F0ED10121201DFFF7BFFC05464D
:1032E000002D3AD1424A136D23F4E023216E0B43A3
:1032F00013650DE0012635460AE0B3F5802FEFD0C7
:10330000B3F5A02FECD0B3F5403FE9D00126354608
:10331000236813F4804F30D0D4F8AC30B3F1005FA1
:1033200047D01FD83BB1B3F1805F18D10121201DD8
:10333000FFF794FC0546002D42D12D4A936D23F0F2
:10334000E043D4F8AC100B43936516E0012104F17F
:103350002400FFF763FD0546C2E72E46D8E70126A5
:1033600035460AE0B3F1804FE5D0B3F1A04FE2D08B
:10337000B3F1405FDFD001263546236813F4004FD8
:1033800009D0E36EB3F1805F1CD0B3F1005F27D0AA
:10339000EBB101263546236813F0807F39D0636C8A
:1033A000032B00F2A681DFE813F02A0025009E011E
:1033B0002A00012104F12400FFF730FD0546BAE799
:1033C0002E46DAE70A4AD36A43F40033D3626DB972
:1033D000074A136D23F04053E16E0B431365DAE7A0
:1033E0000121201DFFF73AFC0546F0E72E46D2E703
:1033F00000440258B74AD36A43F40033D362002D25
:1034000040F07A81B34AD36C23F00303616C0B4321
:10341000D364236813F4800F00F08C81D4F8B030AB
:10342000B3F5807F18BFB3F5007F00F00D81B3F5D1
:103430000C5F00F00981B3F54C5F00F00581B3F536
:10344000864F00F00181B3F5A64F00F0FD80B3F583
:10345000C64F00F0F980B3F5E64F00F0F580B3F504
:10346000034F00F0F180B3F5134F00F0ED80B3F59A
:10347000234F00F0E980B3F5334F00F0E580B3F55A
:10348000434F00F0E180B3F5534F00F0DD80B3F51A
:10349000634F00F0D980B3F5734F00F0D5808E4AAA
:1034A000934200F0D18002F58052934200F0CC802C
:1034B00002F58052934200F0C78002F58052934299
:1034C00000F0C28002F58052934200F0BD8002F508
:1034D0008052934200F0B88002F58052934200F08F
:1034E000B38002F58052934200F0AE8002F5805224
:1034F000934200F0A98002F58052934200F0A4802C
:1035000002F58052934200F09F8002F58052934270
:1035100000F09A8002F58052934200F0958002F507
:103520008052934200F0908002F58052934200F066
:103530008B8002F58052934200F0868002F5805223
:10354000934200F0818002F5805293427CD002F5D4
:103550008052934278D002F58052934274D002F5A3
:103560008052934270D002F5805293426CD002F5A3
:103570008052934268D002F58052934264D002F5A3
:103580008052934260D002F5805293425CD002F5A3
:103590008052934258D002F58052934254D002F5A3
:1035A0008052934250D002F5805293424CD002F5A3
:1035B0008052934248D002F58052934244D002F5A3
:1035C0008052934240D002F5805293423CD002F5A3
:1035D0008052934238D002F58052934234D002F5A3
:1035E0008052934230D002F5805293422CD002F5A3
:1035F0008052934228D002F58052934224D002F5A3
:103600008052934220D002F5805293421CD002F5A2
:103610008052934218D002F58052934214D002F5A2
:103620008052934210D002F5805293420CD002F5A2
:103630008052934208D002F58052934204D040F267
:103640007F312648FDF752FB254A136843F4807307
:10365000136001F0DBF90746214B1B6813F4807FF0
:1036600005D101F0D3F9C01B6428F5D90325002D3D
:103670005FD1184B1B6FD4F8B020534013F4407F38
:103680000CD0144B1A6F22F44072196F41F4803140
:103690001967196F21F4803119671A67D4F8B030AF
:1036A000B3F5807F2AD0002D62D1D4F8B03003F476
:1036B0004072B2F5407F32D0064A136923F47C533E
:1036C000136104490B6FD4F8B020C2F30B0213430B
:1036D0000B6707E00044025800030100489F000800
:1036E0000048025826E00221201DFFF7B7FA0546E0
:1036F00085E6012635468CE62E468AE601F086F9F7
:1037000007468F4B1B6F13F0020FCCD101F07EF9EF
:10371000C01B41F288339842F3D90325C3E7884898
:10372000026922F47C52874901EA131313430361AF
:10373000C7E72E46236813F0010F32D0A36F282B62
:103740002DD8DFE803F01C2C2C2C2C2C2C2C172C27
:103750002C2C2C2C2C2C252C2C2C2C2C2C2C1C2CC0
:103760002C2C2C2C2C2C1C2C2C2C2C2C2C2C1C00E5
:103770002E46DFE70121201DFFF770FA0546E5B967
:103780006F4A536D23F03803A16F0B43536508E074
:10379000012104F12400FFF741FB0546EFE7012674
:1037A0003546236813F0020F16D0636F052B27D818
:1037B000DFE803F00A051F0A0A0A2E46F1E7012195
:1037C000201DFFF74BFA0546EDB95D4A536D23F016
:1037D0000703616F0B435365236813F0040F22D076
:1037E000D4F89030052B43D8DFE803F0140F3B14D6
:1037F0001414012104F12400FFF710FB0546E3E750
:1038000001263546E8E72E46E6E70121201DFFF7B1
:1038100025FA05467DBB4A4A936D23F00703D4F889
:1038200090100B439365236813F0200F33D0D4F826
:103830008C30B3F1005F4CD022D83BB1B3F1805F44
:103840001BD10021201DFFF709FA0546002D47D1A5
:103850003B4A536D23F0E043D4F88C100B4353657F
:1038600019E0012104F12400FFF7D8FA0546D1E759
:1038700001263546D7E72E46D5E7012635460AE02C
:10388000B3F1804FE2D0B3F1A04FDFD0B3F1405F8E
:10389000DCD001263546236813F0400F30D0D4F831
:1038A0009830B3F5006F4FD01FD83BB1B3F5806FA0
:1038B00018D10021201DFFF7D1F90546002D4AD16E
:1038C0001F4A936D23F4E053D4F898100B4393658B
:1038D00016E0022104F12400FFF7A0FA0546B5E73F
:1038E0002E46D8E7012635460AE0B3F5805FE5D0DD
:1038F000B3F5A05FE2D0B3F5406FDFD001263546C7
:10390000236813F0800F36D0D4F89C30B3F5804F85
:1039100000F0CB8024D83BB1B3F5005F1DD100216E
:10392000201DFFF79BF90546002D40F0C580044A95
:10393000936D23F46043D4F89C100B4393651AE015
:1039400000440258CFFFFF00022104F12400FFF7DA
:1039500065FA0546B2E72E46D2E7012635460AE06B
:10396000B3F5004FE0D0B3F5204FDDD0B3F5C04F35
:10397000DAD001263546236813F0080F1AD0D4F8A0
:103980008030B3F5805F18BFB3F5005F04D01BB182
:10399000B3F5405F40F09280D4F88030B3F5805F9B
:1039A00000F09280B04A536D23F44053D4F8801055
:1039B0000B435365236813F0100F1AD0D4F89430DA
:1039C000B3F5807F18BFB3F5007F04D01BB1B3F50A
:1039D000405F40F08380D4F89430B3F5807F00F0EE
:1039E0008380A14A936D23F44073D4F894100B4361
:1039F0009365236813F4002F0CD0D4F8A030B3F5EE
:103A0000803F00F08A80B3F5003F7CD0002B75D05A
:103A100001263546236813F4802F0ED0D4F8843065
:103A2000B3F5001F00F09180B3F5401F00F08380D4
:103A3000B3F5801F7AD001263546236813F4803F02
:103A400010D0E36C002B18BFB3F5803F40F08680A8
:103A5000E36C002B00F08880B3F5803F00F092808B
:103A600001263546236813F0005F40F093802368F9
:103A700013F4003F00F09C80E36FB3F5807F00F00B
:103A8000EA8040F29180B3F5007F03D0B3F5407F28
:103A900040F0DF80002D40F0E480734A536D23F442
:103AA0004073E16F0B43536582E0022104F124006F
:103AB000FFF7B4F9054637E72E465CE740F20F51B1
:103AC0006A48FDF713F967E7022104F12400FFF7C4
:103AD000A5F900283FF466AF012663E740F22251C2
:103AE0006248FDF703F976E7022104F12400FFF7AD
:103AF00095F900283FF475AF012672E70021201DDB
:103B0000FFF7ACF805467DB9574A936D23F440336F
:103B1000D4F8A0100B4393657CE7022104F1240044
:103B2000FFF77CF90546EEE72E4673E74E4AD36A67
:103B300043F40033D3627DB94B4A536D23F44013F1
:103B4000D4F884100B43536577E7012104F1240076
:103B5000FFF764F90546EEE72E466EE74FF4B161D4
:103B60004248FDF7C3F873E73F4AD36A43F4003392
:103B7000D3626DB93C4AD36C23F48033E16C0B43C0
:103B8000D3646FE70221201DFFF768F80546F0E7D0
:103B90002E4667E7022104F12400FFF73FF90028D1
:103BA0003FF465AF012662E7002B3FF473AF0126B7
:103BB000236813F4801F0CD0236F002B18BFB3F1C0
:103BC000004F55D1284A136D23F00043216F0B435A
:103BD0001365236813F0805F0ED0D4F8B430002B47
:103BE00018BFB3F5804F49D11F4A136923F48043AE
:103BF000D4F8B4100B431361236813F4001F0CD0E6
:103C0000A36E002B18BFB3F1807F3DD1164A136D10
:103C100023F08073A16E0B431365236813F0804F6C
:103C200010D0D4F8B830002B18BFB3F5004F31D105
:103C30000D4B1A6922F400421A611A69D4F8B810BF
:103C40000A431A612368002B2ADB06B1012630469D
:103C5000F8BD0126ACE7044AD36A43F40033D362CB
:103C600018E72E46A4E700BF00440258489F00080A
:103C700040F2E7511648FDF739F8A3E740F2F15159
:103C80001348FDF733F8AFE740F2FB511048FDF75A
:103C90002DF8BBE740F211610D48FDF727F8C7E7A3
:103CA000236D002B18BFB3F1805F02D0B3F1005F2A
:103CB00007D1084AD36C23F04053216D0B43D364E2
:103CC000C3E740F21B610248FDF710F8F1E700BFBF
:103CD000489F000800440258704B0360083303609B
:103CE00003F50073036003F5806303606FF05853BE
:103CF00003606FF0505303606FF0105303606FF078
:103D000080630360664B9A6AC2F3055242621A6C82
:103D1000C2F30802013282621A6CC2F306620132F7
:103D200042631A6CC2F346220132C2621A6CC2F3B9
:103D3000064201320263DA6AC2F381228263DA6ADE
:103D4000C2F34022C2639A6AC2F3053242609A6BA0
:103D5000C2F30802013282609A6BC2F3066201323A
:103D600042619A6BC2F346220132C2609A6BC2F37F
:103D7000064201320261DA6AC2F381128261DA6AB2
:103D8000C2F34012C2615A6D02F0380282675A6D66
:103D900002F0070242679A6D02F00702C0F8902015
:103DA0005A6D02F44052C0F880205A6D02F0E04291
:103DB000C0F88C209A6D02F4E052C0F898209A6DF9
:103DC00002F46042C0F89C201A6D02F007024265BE
:103DD0001A6D02F4E07282659A6D02F46002C0F816
:103DE000A4209A6D02F0E062C0F8A8201A6F02F4D5
:103DF0004072C0F8B0205A6D02F44012C0F884201E
:103E0000DA6C02F48032C2645A6D02F44072C26706
:103E10001A6902F48042C0F8B4209A6D02F440326C
:103E2000C0F8A0201A6D02F0004202671A6D02F07D
:103E3000807282661A6D02F4401242661A6D02F4B4
:103E4000E042C2651A6D02F4E02202669A6D02F049
:103E5000E042C0F8AC201A6D02F04052C2665A6DC2
:103E600002F44002C0F88820DA6C02F003024264D7
:103E7000DA6C02F030028264DA6C02F040520265C1
:103E80001B6913F4004F03D10023C0F8B83070470A
:103E90004FF40043C0F8B830704700BFF7F1FFC9D6
:103EA0000044025808B5FEF769FE054B1B6AC3F3D0
:103EB0000213044AD35C03F01F03D84008BD00BFBF
:103EC00000440258F8A5000810B5774A916A946A30
:103ED000C4F3053ED36AC3F3001CD36BC3F3CC0316
:103EE0000CFB03F314F47C3F00F0D88001F00301D5
:103EF00007EE903AF8EE677A012965D0022900F0C2
:103F0000B080E1B107EE10EAB8EE477A9FED676A3C
:103F1000C6EE076A644B9B6BC3F3080307EE103AC7
:103F2000B8EE477A9FED626A67EE867A77EE277A77
:103F3000B7EE007A77EE877A66EEA76A60E01368DC
:103F400013F0200F23D011461268C2F3C102594B5F
:103F5000D34007EE103AB8EE477A06EE90EAB8EE94
:103F6000666AC7EE066A8B6BC3F3080307EE103A66
:103F7000B8EE477A9FED4E6A67EE867A77EE277A3B
:103F8000B7EE007A77EE877A66EEA76A38E007EE3A
:103F900010EAB8EE477A9FED486AC6EE076A424BD0
:103FA0009B6BC3F3080307EE103AB8EE477A9FED18
:103FB000406A67EE867A77EE277AB7EE007A77EE78
:103FC000877A66EEA76A1BE007EE10EAB8EE477A3A
:103FD0009FED366AC6EE076A334B9B6BC3F308034B
:103FE00007EE103AB8EE477A9FED316A67EE867AAF
:103FF00077EE277AB7EE007A77EE877A66EEA76AD1
:10400000294A936BC3F3462307EE103AB8EE477A7A
:10401000B7EE006A37EE067AC6EE877AFCEEE77AEC
:10402000C0ED007A936BC3F3064307EE103AB8EE87
:10403000477A37EE067AC6EE877AFCEEE77AC0ED6D
:10404000017A936BC3F3066307EE903AF8EE677A52
:1040500077EE867A86EEA77ABCEEC77A80ED027A92
:1040600010BD07EE10EAB8EE477A9FED146AC6EE6F
:10407000076A0D4B9B6BC3F3080307EE103AB8EECB
:10408000477A9FED0B6A67EE867A77EE277AB7EE6E
:10409000007A77EE877A66EEA76AB1E700230360BD
:1040A00043608360DCE700BF004402580024744A88
:1040B000000000390090D0030024744C20BCBE4B9B
:1040C00010B5774A916A946AC4F3055ED36AC3F364
:1040D000002C536CC3F3CC030CFB03F314F07C7F74
:1040E00000F0D88001F0030107EE903AF8EE677A0D
:1040F000012965D0022900F0B080E1B107EE10EA95
:10410000B8EE477A9FED676AC6EE076A644B1B6C90
:10411000C3F3080307EE103AB8EE477A9FED626AE0
:1041200067EE867A77EE277AB7EE007A77EE877AAF
:1041300066EEA76A60E0136813F0200F23D01146E3
:104140001268C2F3C102594BD34007EE103AB8EEE1
:10415000477A06EE90EAB8EE666AC7EE066A0B6C1E
:10416000C3F3080307EE103AB8EE477A9FED4E6AA4
:1041700067EE867A77EE277AB7EE007A77EE877A5F
:1041800066EEA76A38E007EE10EAB8EE477A9FEDD0
:10419000486AC6EE076A424B1B6CC3F3080307EE7E
:1041A000103AB8EE477A9FED406A67EE867A77EE6E
:1041B000277AB7EE007A77EE877A66EEA76A1BE079
:1041C00007EE10EAB8EE477A9FED366AC6EE076A48
:1041D000334B1B6CC3F3080307EE103AB8EE477A73
:1041E0009FED316A67EE867A77EE277AB7EE007A2E
:1041F00077EE877A66EEA76A294A136CC3F34623E3
:1042000007EE103AB8EE477AB7EE006A37EE067A54
:10421000C6EE877AFCEEE77AC0ED007A136CC3F342
:10422000064307EE103AB8EE477A37EE067AC6EE46
:10423000877AFCEEE77AC0ED017A136CC3F306636C
:1042400007EE903AF8EE677A77EE867A86EEA77AEE
:10425000BCEEC77A80ED027A10BD07EE10EAB8EE28
:10426000477A9FED146AC6EE076A0D4B1B6CC3F3C9
:10427000080307EE103AB8EE477A9FED0B6A67EE37
:10428000867A77EE277AB7EE007A77EE877A66EE4F
:10429000A76AB1E70023036043608360DCE700BFE7
:1042A000004402580024744A000000390090D003F2
:1042B0000024744C20BCBE4B2DE9F04782B0074669
:1042C0000C463F4A3F4B904218BF984214BF4FF0F4
:1042D00001094FF000092BD003F50063C31A18BF82
:1042E000012302F50062904222D00BB3364BC31A71
:1042F00018BF012302F50062904219D0C3B1334BBD
:10430000C31A18BF012302F50062904210D07BB19E
:104310002F4BC31A18BF012302F50062904207D049
:1043200033B12C4B984203D0BB212B48FCF7DEFC69
:1043300023689AB212B1294A1A401AB1BC21264800
:10434000FCF7D4FC6368112B18BF012B1CD9022B7E
:104350001AD0122B18D0224A934215D002F580129F
:10436000934211D002F5801293420DD0A2F5F812BB
:10437000934209D002F58012934205D002F58012D3
:10438000934201D0032B04D1A368022B06D8002549
:1043900066E0BD211048FCF7A9FCF5E7BE210E48F8
:1043A000FCF7A4FCF3E7CE210B48FCF79FFC6EE082
:1043B000E7210948FCF79AFCC2E0092313E000BF9B
:1043C000000002580004025800140258001C025851
:1043D0000024025800280258809F00080000FFFFB8
:1043E0000000111100238B4003430232904941F831
:1043F00022304FF0B043D3F88020F34322EA060185
:10440000606810F4803F01D046EA02014FF0B042EC
:10441000C2F88010D2F8842003EA0201606810F428
:10442000003F01D046EA02014FF0B042C2F88410CA
:10443000126803EA0201606810F4801F01D046EAA6
:1044400002014FF0B042116052681340616811F4EC
:10445000001F01D046EA02034FF0B042536001351D
:10446000266836FA05F300F0DF804FF0010808FAFD
:1044700005F818EA0606F2D063685A1E112B18BF19
:10448000012A01D9122B16D1E368032B8BD8BA6805
:10449000690003238B4022EA0302E3688B40134345
:1044A000BB607B6823EA08086368C3F30013AB4072
:1044B00043EA08037B60FA684FEA4508032303FADE
:1044C00008F36FEA030A22EA0302A36803FA08F377
:1044D0001343FB606368122B18BF022B40D1B9F164
:1044E000000F29D0534BFB1A18BF0123524A9742A1
:1044F00022D00BB3514BFB1A18BF012302F5006207
:10450000974219D0C3B14E4BFB1A18BF012302F5D5
:104510000062974210D07BB14A4BFB1A18BF0123AF
:1045200002F50062974207D033B1474B9F4203D058
:10453000E6214648FCF7DAFB23690F2B3FF638AF3C
:10454000EA08083257F8220005F0070399000F2304
:104550008B4020EA030023698B40034347F8223055
:104560003B680AEA030A636803F0030303FA08F3EB
:1045700043EA0A033B60636813F0805F3FF46FAF68
:10458000334BD3F8F42042F00202C3F8F420D3F8FE
:10459000F43003F002030193019BAA08911C244B01
:1045A00053F8210005F0030399000F238B4020EA04
:1045B0000300284B9F423FF415AF03F580639F42F1
:1045C00022D003F580639F4220D003F580639F4291
:1045D0001ED003F580639F421CD003F580639F4289
:1045E0001AD003F580639F4218D003F580639F4281
:1045F00016D003F580639F4214D003F580639F4279
:104600003FF4DBAE0A23EEE60123ECE60223EAE602
:104610000323E8E60423E6E60523E4E60623E2E6D0
:104620000723E0E60823DEE602B0BDE8F08700BF1E
:1046300000040058000C02580008025800140258E8
:10464000001C02580024025800280258809F0008CD
:10465000004402580000025870B5054614460E4644
:1046600021B1012C08D86CB1AE6170BD40F2AD1122
:104670000648FCF73BFBF4E74FF4D7710348FCF71F
:1046800035FBF0E73604AE61EFE700BF809F00081E
:1046900038B504460D4629B1636935EA030307D0EE
:1046A000A56138BD40F2C3110348FCF71FFBF3E7D7
:1046B0002D04A561F5E700BF809F0008002800F0E9
:1046C000298108B5024690F83530DBB2022B03D0C1
:1046D00080234365012008BD0368904890498B42C0
:1046E00018BF83420CBF0121002166D030308342C5
:1046F00063D01830834260D0183083425DD01830C8
:1047000083425AD01830834257D01830834254D055
:1047100000F55670834250D0183083424DD0183087
:1047200083424AD01830834247D01830834244D065
:104730001830834241D0183083423ED01830834233
:104740003BD0196821F00E0119601368A0F595603F
:1047500073498B4218BF83426AD072498B4267D03B
:1047600018318B4264D018318B4261D018318B42A2
:104770005ED018318B425BD018318B4258D001F596
:1047800056718B4254D018318B4251D018318B4224
:104790004ED018318B424BD018318B4248D0183153
:1047A0008B4245D018318B4242D018318B423FD0DA
:1047B000196821F0010119603EE0042082F83500FB
:1047C00081BB584A93422DD0183293422AD01832D6
:1047D000934227D01832934224D01832934221D0EA
:1047E000183293421ED002F5567293421AD01832F4
:1047F000934217D01832934214D01832934211D0FA
:10480000183293420ED0183293420BD01832934292
:1048100008D01832934205D01A6822F001021A60BB
:10482000002058E71A6822F001021A60002052E7BF
:10483000196821F0010119601368384838498B4222
:1048400018BF834242D018318B423FD018318B427F
:104850003CD018318B4239D018318B4236D01831C8
:104860008B4233D018318B4230D001F556718B42D8
:104870002CD018318B4229D018318B4226D01831D8
:104880008B4223D018318B4220D018318B421DD05F
:1048900018318B421AD018318B4217D022498B42E3
:1048A00014D014318B4211D014318B420ED01431FC
:1048B0008B420BD014318B4208D014318B4205D07F
:1048C00014318B4202D014318B4217D1116E0B6818
:1048D00023F480730B60906DD36D03F01F010123EF
:1048E0008B404360536E916E5960D36E33B119683B
:1048F00021F480711960136F516F5960002382F8A1
:104900003430012382F83530136D2BB110469847AF
:104910000020E0E6012070470020DCE610000240A5
:1049200028000240400002400854025810B50446D6
:10493000431E012B0CD8164BDB6813F0040F0DD16E
:10494000134BDB6803F00703A3421FD0012010BD07
:1049500040F23F110F48FCF7C9F9ECE70C4BD8685F
:1049600020F007000443DC6000F050F80446084BD8
:104970005B6813F4005F07D100F048F8001BB0F546
:104980007A7FF4D90120E2E70020E0E70020DEE7AB
:1049900000480258B89F000810B50320FDF740F901
:1049A000FDF798FD0F498B69C3F303230E4AD35CCF
:1049B00003F01F03D8408B6903F00F03D35C03F0AF
:1049C0001F0320FA03F3094A1360094B1860002003
:1049D000FDF7DEF810B10124204610BD0446FCF7B7
:1049E000A7FEF9E700440258F8A500080C000024CF
:1049F00008000024034B1B78034A11680B44136022
:104A0000704700BF0000002464060024014B1868B2
:104A1000704700BF6406002438B50446FFF7F6FF70
:104A20000546B4F1FF3F02D0044B1B781C44FFF74E
:104A3000EDFF401BA042FAD338BD00BF00000024A8
:104A4000014B1868000C70470010005C70477047FD
:104A5000704770477047704770477047704770479E
:104A60007047000030B4446B0368D3F884106F4A79
:104A7000114041EA8401C3F884100368D3F884101C
:104A800021F47F01856B41EA0541C3F88410836BF3
:104A900023440468D4F88810114041EA8301C4F823
:104AA00088100468D4F8881021F4FE01C56B41EA2F
:104AB0000541C4F88810C16B03EB41030468D4F8C6
:104AC000A010114041EA8301C4F8A0100468D4F892
:104AD000A01021F4FE01056C41EA0541C4F8A010C4
:104AE000016C446C04FB01330468D4F8B01011402D
:104AF00041EA8301C4F8B0100468D4F8B01021F47E
:104B0000FE01856C41EA0541C4F8B010816CC46CAB
:104B100004FB01330468D4F8AC10114041EA83016E
:104B2000C4F8AC10016D446D04FB01330468D4F883
:104B3000F010114041EA8301C4F8F0100468D4F881
:104B4000F01021F47C11856D41EA0541C4F8F010A4
:104B5000816D03EB41030468D4F8C0100A4042EAB7
:104B60008303C4F8C0300268D2F8C03023F47C1349
:104B7000C16D43EA0143C2F8C0300268D2F8C030C8
:104B800023F07C53016E43EA0163C2F8C030436BEB
:104B9000274A1A449200C266836B02EB83030367C1
:104BA000C16B03EBC1034367016C446C04FB01F16F
:104BB00003EB81038367816CC46C04FB01F103EB9D
:104BC0008103C367016D446D04FB01F103EB8103B5
:104BD000C0F88030816D03EBC103C0F88430816E72
:104BE000C46D01FB04FC03EB8C03C0F88830046E39
:104BF00004FB01F103EB8103C0F890300D498B42B7
:104C00000DD9D0F89C3043F02003C0F89C3003232A
:104C100080F89830012007E0002342F8043BD0F8E8
:104C200090309342F8D8002030BC70470300FFFF5B
:104C3000002B0010FCD3004030B595B004464C2248
:104C4000B64901A804F05AFAB5494FF48070FBF751
:104C500035FE002C00F0DF802368B24A934200F05A
:104C6000E180B049B04A8B4218BF934240F0DE80E9
:104C7000A368002B18BFB3F5807F03D0B3F5407F46
:104C800040F0DA80E368042B00F2DC80237C012B07
:104C900000F2DE80637C012B00F2E080A37C012B1C
:104CA00000F2E2806369013BB3F5007F80F0E280AF
:104CB000A369013B7F2B00F2E380E369013BFF2BFB
:104CC00000F2E480236A013B7F2B00F2E580A368B9
:104CD000B3F5407F00F0E680A36B802B00F20B81E0
:104CE000E36B402B00F20D81236C402B00F20F810F
:104CF000236C002B40F04481A36C402B00F25881C0
:104D0000A36C002B40F05A81236D402B00F26E8182
:104D1000236D002B40F07081A36D202B00F2848165
:104D2000E36D226E1344202B00F28481236E002B4E
:104D300040F08681E36D226ED34240F093817B493F
:104D40004FF48070FBF7BAFD94F89830002B42D1F5
:104D500084F89930764BC4F8A030764BC4F8A43070
:104D6000754BC4F8A830754BC4F8AC30744BC4F81C
:104D7000B030744BC4F8B430734BC4F8B830734BD4
:104D8000C4F8BC30724BC4F8C030724BC4F8C430A5
:104D9000714BC4F8C830714BC4F8CC30704BC4F8B8
:104DA000D030704BC4F8D4306F4BC4F8D8306F4B50
:104DB000C4F8DC306E4BC4F8E030D4F8E430002B9B
:104DC00000F068816B494FF48070FBF777FDD4F8F1
:104DD000E430204698472268936923F010039361DA
:104DE000FFF714FE054623689A6912F0080F00F0D9
:104DF0005581FFF70BFE401B0A28F4D9D4F89C30EC
:104E000043F00103C4F89C30032384F89830012454
:104E1000204615B030BD58494FF48070FBF74EFD69
:104E20000124F5E703F5807262601AE740F237115A
:104E30005248FBF75BFF1BE74FF49C714F48FBF7B1
:104E400055FF1FE740F239114C48FBF74FFF1DE7B4
:104E50004FF49D714948FBF749FF1BE740F23B11B6
:104E60004648FBF743FF19E74FF49E714348FBF7B1
:104E70003DFF17E740F23D114048FBF737FF17E7CA
:104E80004FF49F713D48FBF731FF16E740F23F11A9
:104E90003A48FBF72BFF15E74FF4A0713748FBF7B3
:104EA00025FF14E7636A013B1F2B12D8A36A013B5D
:104EB0000F2B14D8E36A013B1F2B16D8236B013B41
:104EC0000F2B7FF609AF4FF4A3712C48FBF70EFFB1
:104ED00002E740F243112948FBF708FFE6E74FF4E9
:104EE000A2712648FBF702FFE4E740F24511234890
:104EF000FBF7FCFEE2E74FF4A4712048FBF7F6FE57
:104F0000EEE640F249111D48FBF7F0FEECE64FF4E7
:104F1000A5711A48FBF7EAFEEAE600BFEC9B000821
:104F2000F09F000800A0004000A4004008A1000875
:104F30004D4A00084F4A0008B1120008514A0008C3
:104F4000534A0008554A0008574A0008594A0008C1
:104F50005D4A00080D1200085B4A0008C1110008F4
:104F60002112000835120008491200085F4A0008A3
:104F7000614A00083CA1000804A0000820A0000825
:104F800090494FF48070FBF799FC636C1A1F0A2B51
:104F900018BF042A7FF6B0AE0E2B3FF4ADAE122B35
:104FA0003FF4AAAE4FF4A7718748FBF79FFEA3E634
:104FB0004FF4A8718448FBF799FEA1E683494FF4AA
:104FC0008070FBF77BFCE36C1A1F0A2B18BF042AC6
:104FD0007FF69AAE0E2B3FF497AE122B3FF494AEB1
:104FE0004FF4AA717848FBF781FE8DE64FF4AB7160
:104FF0007548FBF77BFE8BE675494FF48070FBF735
:105000005DFC636D1A1F0A2B18BF042A7FF684AE5D
:105010000E2B3FF481AE122B3FF47EAE4FF4AD71F8
:105020006948FBF763FE77E64FF4AE716648FBF71D
:105030005DFE75E640F25D116348FBF757FE75E6CD
:1050400064494FF48070FBF739FC636E002B18BF86
:10505000B3F1804F3FF46EAE40F261115A48FBF756
:1050600045FE67E65C494FF48070FBF727FCA36EB2
:105070001A1F0A2B18BF042A7FF661AE0E2B3FF4CD
:105080005EAE122B3FF45BAE4FF4B3714E48FBF7AC
:105090002DFE54E6514BC4F8E43093E69A6942F091
:1050A00001029A61FFF7B2FC054623689A6912F083
:1050B000010F0FD1FFF7AAFC401B0A28F5D9D4F83D
:1050C0009C3043F00103C4F89C30032384F89830EB
:1050D00001249DE69A6942F002029A61237C012B29
:1050E0004FD02268936943F0400393613C494FF4E9
:1050F0008070FBF7E3FB637C012B4DD02268936942
:1051000023F48043936137494FF48070FBF7D6FB5B
:10511000A37C012B4BD02268936943F480539361A5
:1051200031494FF48070FBF7C9FB2268936923F47F
:105130004073A1680B4393612268936923F0A40331
:1051400093612268136923F010031361E368012B54
:105150004ED0002B51D0022B00F0CC8022689369F6
:1051600043F0800393612268136943F010031361D5
:10517000E368032B41D12268936943F020039361D4
:105180003BE02268936923F04003936117494FF491
:105190008070FBF793FBAEE72268936943F480438A
:1051A000936110494FF48070FBF788FBB0E72268E9
:1051B000936923F4805393610B494FF48070FBF79C
:1051C0007DFBB2E758A0000820A000087CA00008E2
:1051D000A0A00008C0A00008E8A00008651700080B
:1051E00094A10008ACA10008CCA1000870A100089F
:1051F0002268936943F004039361A3695A1EE3692B
:10520000013B1B0243EA4263226A013A134362698B
:10521000013A216843EA0243CB61A368B3F5407FBA
:105220006ED0236E33B12268D2F8C030616E0B436A
:10523000C2F8C030E36D226ED3420DD02168D1F8A0
:10524000C83023F00703A26E14A800EB820252F8C4
:105250004C2C1343C1F8C830236C6BB12168D1F8D2
:10526000BC3023F00703626C14A800EB820252F8F2
:105270004C2C1343C1F8BC30A36C73B12168D1F836
:10528000BC3023F07003E26C14A800EB820252F8E9
:105290004C2C43EA0213C1F8BC30236D73B1216872
:1052A000D1F8BC3023F4E063626D14A800EB8202F5
:1052B00052F84C2C43EA0223C1F8BC3022681C4B44
:1052C0009A422ED01B494FF48070FBF7F7FA002367
:1052D000C4F89430C4F89C30012384F898302046F8
:1052E000FFF7C0FB0446024613494FF48070FBF7FA
:1052F000E5FA8DE52268936943F0200393617CE72A
:10530000A36A013BE26A013A43EA0223226B013AB3
:1053100043EA0213626A013A216843EA0243CB601E
:105320007FE76268936823F003039360CAE700BFD6
:1053300000A00040F0A1000808A2000838B505460A
:1053400090F89830013BDBB2012B07D9D0F89C30A4
:1053500043F00203C0F89C30012038BD0C460B68B6
:10536000002B18BFB3F1804F2DD1E368072B30D845
:10537000E368072B33D02368002B64D16268AB6BE2
:10538000013B9A423DD82369B3F5006F3FD2E368F1
:10539000072B06D06369B3F5006F3ED2A368022BDA
:1053A00041D8E368072B44D0A268DB0643EA827346
:1053B000226943EA024362691343EA6E616842F874
:1053C00021300020C9E740F235713E48FBF78EFCE2
:1053D000CBE740F236713B48FBF788FCC8E7A3698E
:1053E0003F2B08D8E369012BC5D940F23A71354803
:1053F000FBF77CFCBFE740F239713248FBF776FCE3
:10540000F0E74FF4E8612F48FBF770FCBBE740F290
:1054100041712C48FBF76AFCB9E740F24471294816
:10542000FBF764FCBAE740F245712648FBF75EFCE7
:10543000B7E72269E3691B0243EA0243A269134307
:1054400043F06053B9E76268EB6B013B9A421FD8A7
:105450002369B3F1005F21D2E368072B06D06369AB
:10546000B3F1005F20D2A368032B23D8E26823693D
:1054700043EA4273072A23D0A168626942EA817233
:10548000296F606801EBC00441F83030626098E732
:1054900040F261710B48FBF729FCD9E740F26271D9
:1054A0000848FBF723FCD7E740F265710548FBF796
:1054B0001DFCD8E740F266710248FBF717FCD5E700
:1054C000A269DDE720A0000890F89830DBB2012B3C
:1054D00007D0D0F89C3043F00403C0F89C30012082
:1054E0007047022380F898300268936923F0010323
:1054F00093610023C0F89C30184670472DE9F041B5
:1055000005460F4614461E4690F898805FFA88F8C4
:1055100088494FF48070FBF7D1F9B8F1020F40F0E1
:10552000FA8085494FF48070FBF7C8F9402F38D0D6
:10553000412F79D02B6DBB4240F2B180EA6F6B6D89
:1055400007FB03F302EB83020020136803F08043A0
:105550006360002B40F0B0801368C3F38A4323607C
:10556000136803F00053A360136803F00043236142
:105570009388E361536803F47023E360536803F492
:1055800080136361536803F40013A361D37903F0BC
:105590007F0323625368DB0F636208324FF0000C15
:1055A00095E02B68D3F8A02012F4FE0F18D0D3F8A2
:1055B000A42012F07F0F20D0D3F8A430C3F30060F2
:1055C00013F0807F26D12B68D3F8A430C3F30523D2
:1055D00018446A6F6B6C00FB03F302EB8302B4E7C1
:1055E000D5F89C3043F02003C5F89C3053494FF464
:1055F0008070FBF763F9012099E0D5F89C3043F403
:105600008073C5F89C304E494FF48070FBF756F913
:1056100001208CE04B494FF48070FBF74FF92B6869
:10562000D3F8A0300020CEE72B68D3F8B02012F4D6
:10563000FE0F1AD0D3F8B42012F07F0F22D0D3F887
:10564000B420C2F3006012F0807F02D0D3F8B02003
:105650000020D3F8B430C3F305231844AA6FEB6CD1
:1056600000FB03F302EB83026FE7D5F89C3043F0B5
:105670002003C5F89C3031494FF48070FBF71EF9C8
:10568000012054E0D5F89C3043F48073C5F89C3079
:105690002B494FF48070FBF711F9012047E0D5F852
:1056A0009C3043F02003C5F89C3024494FF48070AF
:1056B000FBF704F901203AE0136823F0604323600C
:1056C0004EE712F80C3006F80C300CF1010CE389AF
:1056D0001D49CB5C6345F4D8402F0AD0412F0DD033
:1056E0001F2F0FD82A68012303FA07F7C2F8987012
:1056F00002E02B68C3F8A800002018E02B68C3F86C
:10570000B800F9E707F01F072A68012303FA07F733
:10571000C2F89C70F0E7D5F89C3043F00803C5F858
:105720009C300A494FF48070FBF7C8F80120BDE8AF
:10573000F08100BF20A200083CA200086CA2000873
:105740009CA20008D4A20008E0A4000800A300085E
:10575000F8B506460D46174690F89840E4B211F4A5
:10576000401F15D137494FF48070FBF7A7F8013C73
:10577000E4B2012C12D9D6F89C3043F00203C6F8EB
:105780009C3031494FF48070FBF798F80120F8BD48
:1057900041F2DF312D48FBF7A9FAE3E72C494FF43A
:1057A0008070FBF78BF833689A6D2A421DD09A6D92
:1057B00035EA020223D00322DA6526494FF48070CD
:1057C000FBF77CF815F4007F23D115F4806F2CD102
:1057D00031684B6D204A2A4013434B651F4B596972
:1057E00041EA95755D610020D1E7DA6D42F0010272
:1057F000DA651B494FF48070FBF760F8E2E7DA6D79
:1058000042F00202DA6517494FF48070FBF756F850
:10581000D8E73268D2F8E0303B43C2F8E0301249B2
:105820004FF48070FBF74AF8CFE73368D3F8E420F1
:105830003A43C3F8E4200D494FF48070FBF73EF87B
:10584000C6E700BF38A30008A4A4000820A00008F1
:105850005CA30008F0A30008FFFFCF3F00A80040B2
:1058600080A30008B8A3000830A4000868A40008BA
:105870002DE9F0470446934B1A695B694FEA837A36
:105880000AEA827A03681A6D02F470495A6D09EACD
:1058900002091A6D02F00F085A6D08EA02081F6D1E
:1058A00007F0F0075A6D17401D6D05F071555A6DE0
:1058B00015401E6D06F060765B6D1E4082494FF408
:1058C0008070FAF7FBFF23685A6D12F4807F0DD0C9
:1058D0001A6D12F4807F09D04FF480721A65794BEB
:1058E00000221A61D4F8C0302046984723685A6DC8
:1058F00012F4806F12D01A6D12F4806F0ED0D3F8AC
:10590000DC10D3F8E4204FF4806018656D4B002064
:105910001861D4F8B830114020469847BAF1000F0A
:105920000BD0236800221A654FEA9A72654B1A6100
:10593000D4F8A030514620469847B9F1000F0BD05B
:105940002368C3F850904FEA99725E4B1A61D4F8FD
:10595000A430494620469847B8F1000F0BD0236881
:10596000C3F850804FEA9872564B1A61D4F8A830A9
:105970004146204698474FB123681F65BA0F514BE7
:105980001A61D4F8AC3039462046984723685A6DDE
:1059900012F4006F0DD01A6D12F4006F09D04FF49D
:1059A00000621A65474B00221A61D4F8B0302046D5
:1059B000984723685A6D12F4007F12D01A6D12F4C2
:1059C000007F0ED0D3F8D810D3F8E0204FF4007049
:1059D00018653C4B00201861D4F8B43011402046C3
:1059E000984723685A6D12F4002F0DD01A6D12F4E7
:1059F000002F09D04FF400221A65324B00221A61A1
:105A0000D4F8BC302046984723685A6D12F4803F82
:105A10000DD01A6D12F4803F09D04FF480321A6510
:105A2000284B00221A61D4F8C430204698472368D6
:105A30005A6D12F4802F0DD01A6D12F4802F09D0F8
:105A40004FF480221A651F4B00221A61D4F8C83027
:105A50002046984723685A6D12F4003F0FD01A6D04
:105A600012F4003F0BD04FF400321A65154B0022A0
:105A70001A61D4F89C3043F08003C4F89C304EB1D6
:105A800023681E65B20F0F4B1A61D4F8D03031462F
:105A9000204698474DB123681D65AA0F094B1A612E
:105AA000D4F89C301D43C4F89C502268074B9A429E
:105AB0000ED0D4F89C301BB1D4F8CC302046984797
:105AC000BDE8F08700A80040C8A4000800A000407E
:105AD00063689A6812F0030FEBD0196A01F00F01A6
